:100000000C9462000C948A000C948A000C948A0070
:100010000C948A000C948A000C948A000C948A0038
:100020000C948A000C948A000C948A000C948A0028
:100030000C948A000C94E8030C948A000C948A00B7
:100040000C949E030C948A000C946C030C9446034D
:100050000C948A000C948A000C948A000C948A00F8
:100060000C948A000C948A000000000024002700F1
:100070002A0000000000250028002B0000000000DE
:1000800023002600290004040404040404040202DA
:100090000202020203030303030301020408102007
:1000A0004080010204081020010204081020000012
:1000B0000008000201000003040700000000000027
:1000C00000004C0611241FBECFEFD8E0DEBFCDBF2D
:1000D00011E0A0E0B1E0E2E0FDE002C005900D9289
:1000E000A038B107D9F722E0A0E8B1E001C01D9225
:1000F000A433B207E1F710E0C2E6D0E004C02197D4
:10010000FE010E947906C136D107C9F70E940F048B
:100110000C947F060C940000AF92BF92CF92DF92B6
:10012000EF92FF920F931F93CF93DF936C017B01AC
:100130008B01040F151FEB015E01AE18BF08C0173D
:10014000D10759F06991D601ED91FC910190F081B0
:10015000E02DC6010995892B79F7C501DF91CF9173
:100160001F910F91FF90EF90DF90CF90BF90AF90D5
:100170000895FC01538D448D252F30E0842F90E0AD
:10018000821B930B541710F0CF9608950197089592
:10019000FC01918D828D981761F0A28DAE0FBF2F5B
:1001A000B11D5D968C91928D9F5F9F73928F90E0B1
:1001B00008958FEF9FEF0895FC01918D828D981720
:1001C00031F0828DE80FF11D858D90E008958FEF5D
:1001D0009FEF0895FC01918D228D892F90E0805C26
:1001E0009F4F821B91098F739927089587E991E0AA
:1001F0000E94EA0021E0892B09F420E0822F089573
:1002000080E090E0892B29F00E94F60081110C9487
:1002100000000895FC01A48DA80FB92FB11DA35AA9
:10022000BF4F2C91848D90E001968F739927848F16
:10023000A689B7892C93A089B1898C918370806439
:100240008C93938D848D981306C00288F389E02DDA
:1002500080818F7D80830895EF92FF920F931F938B
:10026000CF93DF93EC0181E0888F9B8D8C8D981369
:100270001AC0E889F989808185FF15C09FB7F89475
:10028000EE89FF896083E889F989808183708064C1
:1002900080839FBF81E090E0DF91CF911F910F910C
:1002A000FF90EF900895F62E0B8D10E00F5F1F4F1B
:1002B0000F731127E02E8C8D8E110CC00FB607FC2A
:1002C000FACFE889F989808185FFF5CFCE010E94B8
:1002D0000A01F1CFEB8DEC0FFD2FF11DE35AFF4F1B
:1002E000F0829FB7F8940B8FEA89FB898081806246
:1002F000CFCFCF93DF93EC01888D8823B9F0AA8903
:10030000BB89E889F9898C9185FD03C0808186FDD0
:100310000DC00FB607FCF7CF8C9185FFF2CF80811F
:1003200085FFEDCFCE010E940A01E9CFDF91CF9189
:100330000895833081F028F4813099F08230A9F05B
:1003400008958730A9F08830C9F08430B1F48091E5
:1003500080008F7D03C0809180008F778093800024
:10036000089584B58F7784BD089584B58F7DFBCFC4
:100370008091B0008F778093B00008958091B00095
:100380008F7DF9CFCF93DF93282F30E0F901E2552D
:10039000FF4F8491F901E656FF4FD491F901EA57D6
:1003A000FF4FC491CC23A1F081110E949901EC2F41
:1003B000F0E0EE0FFF1FE458FF4FA591B491EC91D0
:1003C000ED2381E090E009F480E0DF91CF91089582
:1003D00080E090E0FACF1F93CF93DF93282F30E097
:1003E000F901E255FF4F8491F901E656FF4FD49190
:1003F000F901EA57FF4FC491CC23A9F0162F8111C0
:100400000E949901EC2FF0E0EE0FFF1FEE58FF4F16
:10041000A591B4918FB7F894EC91111108C0D095C3
:10042000DE23DC938FBFDF91CF911F910895DE2BE8
:10043000F8CFCF93DF9390E0FC01E656FF4F249175
:100440008A579F4FFC0184918823D1F090E0880F58
:10045000991FFC01E859FF4FA591B491FC01EE589A
:10046000FF4FC591D49161110EC09FB7F8948C9144
:10047000E22FE0958E238C932881E223E8839FBFAF
:10048000DF91CF9108958FB7F894EC91E22BEC9324
:100490008FBFF6CF3FB7F894809186019091870186
:1004A000A0918801B091890126B5A89B05C02F3F76
:1004B00019F00196A11DB11D3FBFBA2FA92F982F8A
:1004C0008827BC01CD01620F711D811D911D43E084
:1004D000660F771F881F991F4A95D1F708958F924D
:1004E0009F92AF92BF92CF92DF92EF92FF926B01F9
:1004F0007C010E944A024B015C01C114D104E10459
:10050000F104B9F00E944A02681979098A099B0925
:10051000683E73408105910580F321E0C21AD1083D
:10052000E108F10888EE880E83E0981EA11CB11C3A
:10053000E4CFFF90EF90DF90CF90BF90AF909F906F
:100540008F900895CF92DF92EF92FF920F931F93B7
:10055000CF93DF93D0E0C0E0082F10E06B01770F5E
:10056000EE08FF08C017D10794F461E08DE00E9407
:10057000EB01C701B6010E946F0260E08DE00E94AE
:10058000EB01C701B6010E946F022196EBCFDF910C
:10059000CF911F910F91FF90EF90DF90CF90089532
:1005A00080918001882349F0809190019091910180
:1005B000019690939101809390010895CF93DF93DA
:1005C000FC0101900020E9F73197AF01481B590B5E
:1005D000BC0187E991E00E948C00EC0142E050E010
:1005E00062E171E087E991E00E948C008C0F9D1F11
:1005F000DF91CF9108951092800160E08DE00E941C
:10060000EB0161E083E00E94EB0185E191E00E9453
:10061000DE0287E991E00C94790190939601809332
:1006200095018230910521F124F40197A9F00C94F1
:10063000FB028330910519F10497C9F781E080939B
:10064000800161E08DE00E94EB0160E083E00E94A8
:10065000EB0181E691E006C061E083E00E94EB01DE
:1006600088E291E00E94DE0287E991E00C94790132
:1006700061E083E00E94EB018BE391E0F3CF61E066
:1006800083E00E94EB018EE491E0ECCF1F920F9289
:100690000FB60F9211242F933F934F935F936F9355
:1006A0007F938F939F93AF93BF93EF93FF9387E9CC
:1006B00091E00E940A01FF91EF91BF91AF919F914C
:1006C0008F917F916F915F914F913F912F910F90FB
:1006D0000FBE0F901F9018951F920F920FB60F929A
:1006E00011242F938F939F93EF93FF93E091A70192
:1006F000F091A8018081E091AD01F091AE0182FD01
:100700001BC090818091B0018F5F8F732091B101E8
:10071000821741F0E091B001F0E0E956FE4F958F6D
:100720008093B001FF91EF919F918F912F910F9046
:100730000FBE0F901F9018958081F4CF1F920F92DB
:100740000FB60F9211242F933F938F939F93AF93E4
:10075000BF938091820190918301A0918401B09117
:1007600085013091810126E0230F2D3758F502963F
:10077000A11DB11D2093810180938201909383017B
:10078000A0938401B09385018091860190918701A7
:10079000A0918801B09189010196A11DB11D80939E
:1007A000860190938701A0938801B0938901BF913E
:1007B000AF919F918F913F912F910F900FBE0F900E
:1007C0001F90189529E8230F0396A11DB11DD2CFC4
:1007D0001F920F920FB60F9211242F933F934F93B6
:1007E0005F936F937F938F939F93AF93BF93EF9399
:1007F000FF93E0918A01F0918B010995FF91EF91B0
:10080000BF91AF919F918F917F916F915F914F9128
:100810003F912F910F900FBE0F901F9018957894D5
:1008200084B5826084BD84B5816084BD85B58260F5
:1008300085BD85B5816085BD80916E0081608093A6
:100840006E0010928100809181008260809381000F
:10085000809181008160809381008091800081601F
:10086000809380008091B10084608093B10080917A
:10087000B00081608093B00080917A0084608093A2
:100880007A0080917A00826080937A0080917A0069
:100890008E7F80937A0080917A00806880937A00BE
:1008A0001092C100E091A701F091A80182E080833D
:1008B000E091A301F091A4011082E091A501F091D3
:1008C000A60188E080831092AF01E091AB01F09126
:1008D000AC0186E08083E091A901F091AA018081BA
:1008E00080618083E091A901F091AA0180818860F4
:1008F0008083E091A901F091AA01808180688083C2
:10090000E091A901F091AA0180818F7D808380E12F
:10091000809381001092800080E593EC9093870093
:100920008093860082E18093810080ED92E0909335
:100930008B0180938A0181E080936F0061E083E006
:100940000E94190261E08DE00E94190260E086E0D9
:100950000E94190260E085E00E94190260E088E0D0
:100960000E94190260E087E00E94190261E083E0C2
:100970000E94EB0166E970E083E00E94A2021092FF
:100980009601109295010E94FB0290E0E92E90E002
:10099000F92E24E3A22E33E3932E42E3842E81E347
:1009A000B82E109294011092930186E00E94C20129
:1009B0006C0181E0C114D10409F480E080938F01BF
:1009C00085E00E94C2018C0181E00115110509F446
:1009D00080E080938E0188E00E94C201EC0181E0FA
:1009E000209709F480E080938D0187E00E94C20186
:1009F00021E0009709F420E020938C01CD2829F113
:100A0000012B09F084C0CD2B09F081C0892B09F09E
:100A10007EC0B092920164E170E081E00E94A20287
:100A200080918F01882309F41DC186E00E94C201D4
:100A300021E0892B09F420E020938F0162E370E02C
:100A400080E090E00E946F02EBCF012B11F1CD2BE3
:100A500009F05DC0892B09F05AC08092920164E1CF
:100A600070E081E00E94A20280918E01882309F447
:100A7000FCC085E00E94C20121E0892B09F420E03E
:100A800020938E0162E370E080E090E00E946F02AC
:100A9000EBCFCD2BF1F0892BD1F59092920164E14F
:100AA00070E081E00E94A20280918D01882309F408
:100AB000E8C088E00E94C20121E0892B09F420E00F
:100AC00020938D0162E370E080E090E00E946F026D
:100AD000EBCF892BE1F0A092920164E170E081E01C
:100AE0000E94A20280918C01882309F48EC087E0C5
:100AF0000E94C20121E0892B09F420E020938C019F
:100B000062E370E080E090E00E946F02EBCF109211
:100B1000920120E080919501909196014091900181
:100B20005091910148325105D1F523E030E03093E6
:100B300094012093930110929101109290018230C0
:100B4000910509F459C008F475C08330910589F006
:100B5000049709F482C0E114F10409F422CF0E9441
:100B6000F600882309F41BCF0E94000018CF0397DA
:100B700091F78091930190919401029721F484E080
:100B800090E00E940D038091930190919401019750
:100B900011F764E670E082E00E94A2025EC02223A8
:100BA000C9F021E030E0309394012093930182302A
:100BB000910511F198F4009709F448C0019759F68E
:100BC0008091930190919401029709F03FC082E0D7
:100BD00090E03AC08230910579F060F18330910560
:100BE00041F2049709F0B7CF80919301909194015D
:100BF000039709F0B0CF31C0809193019091940197
:100C0000029721F583E090E01FC02091920180912E
:100C10009501909196018330910509F07FCF22E0F4
:100C200030E030939401209393018230910521F3B9
:100C300008F09DCF009711F6809193019091940157
:100C4000029721F481E090E00E940D0380919301CE
:100C500090919401019709F07ECF90E080E00E948E
:100C60000D0379CF2091920155CF2091920180916F
:100C7000950190919601AC014D7F452B09F04ECF27
:100C8000CECF209192018091950190919601813073
:100C9000910509F043CFC3CFE7E9F1E01382128257
:100CA00088EE93E0A0E0B0E084839583A683B783C9
:100CB00084E091E09183808385EC90E09587848740
:100CC00084EC90E09787868780EC90E0918B808B16
:100CD00081EC90E0938B828B82EC90E0958B848BFF
:100CE00086EC90E0978B868B118E128E138E148E6D
:100CF0000895EE0FFF1F0590F491E02D0994F894EC
:020D0000FFCF23
:100D0200000000002C018C00B9007901EA00C80043
:100D1200DC000D0A006573706572616E646F206499
:100D2200696769746F2031006573706572616E6402
:100D32006F2064696769746F203200657370657231
:100D4200616E646F2064696769746F203300657334
:100D5200706572616E646F2064696769746F2034B4
:100D620000436C61766520636F72656374613A203B
:100D72006163746976616E646F2052656C65000010
:00000001FF
